{
  "_format": "hh-sol-artifact-1",
  "contractName": "CryptoFund",
  "sourceName": "contracts/CryptoFund.sol",
  "abi": [
    {
      "anonymous": false,
      "inputs": [
        {
          "indexed": true,
          "internalType": "uint256",
          "name": "campaignId",
          "type": "uint256"
        }
      ],
      "name": "CampaignCanceled",
      "type": "event"
    },
    {
      "anonymous": false,
      "inputs": [
        {
          "indexed": true,
          "internalType": "uint256",
          "name": "id",
          "type": "uint256"
        },
        {
          "indexed": true,
          "internalType": "address",
          "name": "owner",
          "type": "address"
        },
        {
          "indexed": false,
          "internalType": "string",
          "name": "title",
          "type": "string"
        },
        {
          "indexed": false,
          "internalType": "uint256",
          "name": "goal",
          "type": "uint256"
        },
        {
          "indexed": false,
          "internalType": "uint256",
          "name": "endTime",
          "type": "uint256"
        }
      ],
      "name": "CampaignCreated",
      "type": "event"
    },
    {
      "anonymous": false,
      "inputs": [
        {
          "indexed": true,
          "internalType": "uint256",
          "name": "campaignId",
          "type": "uint256"
        },
        {
          "indexed": true,
          "internalType": "address",
          "name": "owner",
          "type": "address"
        },
        {
          "indexed": false,
          "internalType": "uint256",
          "name": "amount",
          "type": "uint256"
        }
      ],
      "name": "CampaignFundsClaimed",
      "type": "event"
    },
    {
      "anonymous": false,
      "inputs": [
        {
          "indexed": true,
          "internalType": "uint256",
          "name": "campaignId",
          "type": "uint256"
        },
        {
          "indexed": true,
          "internalType": "address",
          "name": "contributor",
          "type": "address"
        },
        {
          "indexed": false,
          "internalType": "uint256",
          "name": "amount",
          "type": "uint256"
        }
      ],
      "name": "ContributionMade",
      "type": "event"
    },
    {
      "anonymous": false,
      "inputs": [
        {
          "indexed": true,
          "internalType": "uint256",
          "name": "campaignId",
          "type": "uint256"
        },
        {
          "indexed": true,
          "internalType": "address",
          "name": "contributor",
          "type": "address"
        },
        {
          "indexed": false,
          "internalType": "uint256",
          "name": "amount",
          "type": "uint256"
        }
      ],
      "name": "ContributionRefunded",
      "type": "event"
    },
    {
      "anonymous": false,
      "inputs": [
        {
          "indexed": true,
          "internalType": "uint256",
          "name": "campaignId",
          "type": "uint256"
        },
        {
          "indexed": true,
          "internalType": "address",
          "name": "contributor",
          "type": "address"
        },
        {
          "indexed": false,
          "internalType": "uint256",
          "name": "amount",
          "type": "uint256"
        },
        {
          "indexed": false,
          "internalType": "uint256",
          "name": "stakingPeriod",
          "type": "uint256"
        }
      ],
      "name": "StakingContributionMade",
      "type": "event"
    },
    {
      "anonymous": false,
      "inputs": [
        {
          "indexed": true,
          "internalType": "uint256",
          "name": "campaignId",
          "type": "uint256"
        },
        {
          "indexed": true,
          "internalType": "address",
          "name": "contributor",
          "type": "address"
        },
        {
          "indexed": false,
          "internalType": "uint256",
          "name": "reward",
          "type": "uint256"
        }
      ],
      "name": "StakingRewardClaimed",
      "type": "event"
    },
    {
      "inputs": [],
      "name": "campaignCount",
      "outputs": [
        {
          "internalType": "uint256",
          "name": "",
          "type": "uint256"
        }
      ],
      "stateMutability": "view",
      "type": "function"
    },
    {
      "inputs": [
        {
          "internalType": "uint256",
          "name": "",
          "type": "uint256"
        }
      ],
      "name": "campaigns",
      "outputs": [
        {
          "internalType": "uint256",
          "name": "id",
          "type": "uint256"
        },
        {
          "internalType": "address payable",
          "name": "owner",
          "type": "address"
        },
        {
          "internalType": "string",
          "name": "title",
          "type": "string"
        },
        {
          "internalType": "string",
          "name": "description",
          "type": "string"
        },
        {
          "internalType": "uint256",
          "name": "goal",
          "type": "uint256"
        },
        {
          "internalType": "uint256",
          "name": "currentAmount",
          "type": "uint256"
        },
        {
          "internalType": "uint256",
          "name": "endTime",
          "type": "uint256"
        },
        {
          "internalType": "bool",
          "name": "claimed",
          "type": "bool"
        },
        {
          "internalType": "bool",
          "name": "canceled",
          "type": "bool"
        }
      ],
      "stateMutability": "view",
      "type": "function"
    },
    {
      "inputs": [
        {
          "internalType": "uint256",
          "name": "_campaignId",
          "type": "uint256"
        }
      ],
      "name": "cancelCampaign",
      "outputs": [],
      "stateMutability": "nonpayable",
      "type": "function"
    },
    {
      "inputs": [
        {
          "internalType": "uint256",
          "name": "_campaignId",
          "type": "uint256"
        }
      ],
      "name": "claimCampaignFunds",
      "outputs": [],
      "stateMutability": "nonpayable",
      "type": "function"
    },
    {
      "inputs": [
        {
          "internalType": "uint256",
          "name": "_campaignId",
          "type": "uint256"
        }
      ],
      "name": "claimStakingReward",
      "outputs": [],
      "stateMutability": "nonpayable",
      "type": "function"
    },
    {
      "inputs": [
        {
          "internalType": "uint256",
          "name": "_campaignId",
          "type": "uint256"
        }
      ],
      "name": "contribute",
      "outputs": [],
      "stateMutability": "payable",
      "type": "function"
    },
    {
      "inputs": [
        {
          "internalType": "uint256",
          "name": "_campaignId",
          "type": "uint256"
        },
        {
          "internalType": "uint256",
          "name": "_stakingPeriodInDays",
          "type": "uint256"
        }
      ],
      "name": "contributeWithStaking",
      "outputs": [],
      "stateMutability": "payable",
      "type": "function"
    },
    {
      "inputs": [
        {
          "internalType": "uint256",
          "name": "",
          "type": "uint256"
        },
        {
          "internalType": "address",
          "name": "",
          "type": "address"
        }
      ],
      "name": "contributions",
      "outputs": [
        {
          "internalType": "uint256",
          "name": "",
          "type": "uint256"
        }
      ],
      "stateMutability": "view",
      "type": "function"
    },
    {
      "inputs": [
        {
          "internalType": "string",
          "name": "_title",
          "type": "string"
        },
        {
          "internalType": "string",
          "name": "_description",
          "type": "string"
        },
        {
          "internalType": "uint256",
          "name": "_goal",
          "type": "uint256"
        },
        {
          "internalType": "uint256",
          "name": "_durationInDays",
          "type": "uint256"
        }
      ],
      "name": "createCampaign",
      "outputs": [
        {
          "internalType": "uint256",
          "name": "",
          "type": "uint256"
        }
      ],
      "stateMutability": "nonpayable",
      "type": "function"
    },
    {
      "inputs": [
        {
          "internalType": "uint256",
          "name": "_campaignId",
          "type": "uint256"
        }
      ],
      "name": "getCampaign",
      "outputs": [
        {
          "internalType": "uint256",
          "name": "id",
          "type": "uint256"
        },
        {
          "internalType": "address",
          "name": "owner",
          "type": "address"
        },
        {
          "internalType": "string",
          "name": "title",
          "type": "string"
        },
        {
          "internalType": "string",
          "name": "description",
          "type": "string"
        },
        {
          "internalType": "uint256",
          "name": "goal",
          "type": "uint256"
        },
        {
          "internalType": "uint256",
          "name": "currentAmount",
          "type": "uint256"
        },
        {
          "internalType": "uint256",
          "name": "endTime",
          "type": "uint256"
        },
        {
          "internalType": "bool",
          "name": "claimed",
          "type": "bool"
        },
        {
          "internalType": "bool",
          "name": "canceled",
          "type": "bool"
        }
      ],
      "stateMutability": "view",
      "type": "function"
    },
    {
      "inputs": [
        {
          "internalType": "uint256",
          "name": "_campaignId",
          "type": "uint256"
        },
        {
          "internalType": "address",
          "name": "_contributor",
          "type": "address"
        }
      ],
      "name": "getStakingContribution",
      "outputs": [
        {
          "internalType": "uint256",
          "name": "amount",
          "type": "uint256"
        },
        {
          "internalType": "uint256",
          "name": "stakingPeriod",
          "type": "uint256"
        },
        {
          "internalType": "uint256",
          "name": "stakingEndTime",
          "type": "uint256"
        },
        {
          "internalType": "uint256",
          "name": "reward",
          "type": "uint256"
        },
        {
          "internalType": "bool",
          "name": "claimed",
          "type": "bool"
        }
      ],
      "stateMutability": "view",
      "type": "function"
    },
    {
      "inputs": [
        {
          "internalType": "uint256",
          "name": "_campaignId",
          "type": "uint256"
        }
      ],
      "name": "refundContribution",
      "outputs": [],
      "stateMutability": "nonpayable",
      "type": "function"
    },
    {
      "inputs": [
        {
          "internalType": "uint256",
          "name": "",
          "type": "uint256"
        },
        {
          "internalType": "address",
          "name": "",
          "type": "address"
        }
      ],
      "name": "stakingContributions",
      "outputs": [
        {
          "internalType": "uint256",
          "name": "amount",
          "type": "uint256"
        },
        {
          "internalType": "uint256",
          "name": "stakingPeriod",
          "type": "uint256"
        },
        {
          "internalType": "uint256",
          "name": "stakingEndTime",
          "type": "uint256"
        },
        {
          "internalType": "uint256",
          "name": "reward",
          "type": "uint256"
        },
        {
          "internalType": "bool",
          "name": "claimed",
          "type": "bool"
        }
      ],
      "stateMutability": "view",
      "type": "function"
    },
    {
      "inputs": [],
      "name": "stakingRewardRate",
      "outputs": [
        {
          "internalType": "uint256",
          "name": "",
          "type": "uint256"
        }
      ],
      "stateMutability": "view",
      "type": "function"
    }
  ],
  "bytecode": "0x60806040526000600355600560045534801561001a57600080fd5b50612ce18061002a6000396000f3fe6080604052600436106100dd5760003560e01c80637274e30d1161007f578063a318f26911610059578063a318f269146102d7578063a978b47714610314578063c1cbbca714610355578063e4571a2514610371576100dd565b80637274e30d146102675780637f647f9d146102925780638c745dfc146102bb576100dd565b80633d891f59116100bb5780633d891f591461019157806345598b4a146101ce5780634f3fc2df146101f75780635598f8cc14610222576100dd565b8063141961bc146100e2578063239cd4a4146101275780633008e96914610150575b600080fd5b3480156100ee57600080fd5b5061010960048036038101906101049190611cec565b61039a565b60405161011e99989796959493929190612397565b60405180910390f35b34801561013357600080fd5b5061014e60048036038101906101499190611cec565b610532565b005b34801561015c57600080fd5b5061017760048036038101906101729190611d15565b610798565b6040516101889594939291906124f6565b60405180910390f35b34801561019d57600080fd5b506101b860048036038101906101b39190611d15565b61086f565b6040516101c5919061237c565b60405180910390f35b3480156101da57600080fd5b506101f560048036038101906101f09190611cec565b610894565b005b34801561020357600080fd5b5061020c610abb565b604051610219919061237c565b60405180910390f35b34801561022e57600080fd5b5061024960048036038101906102449190611cec565b610ac1565b60405161025e99989796959493929190612432565b60405180910390f35b34801561027357600080fd5b5061027c610d5d565b604051610289919061237c565b60405180910390f35b34801561029e57600080fd5b506102b960048036038101906102b49190611cec565b610d63565b005b6102d560048036038101906102d09190611d51565b610fbc565b005b3480156102e357600080fd5b506102fe60048036038101906102f99190611c59565b6112e7565b60405161030b919061237c565b60405180910390f35b34801561032057600080fd5b5061033b60048036038101906103369190611d15565b611567565b60405161034c9594939291906124f6565b60405180910390f35b61036f600480360381019061036a9190611cec565b6115b7565b005b34801561037d57600080fd5b5061039860048036038101906103939190611cec565b6117c4565b005b60006020528060005260406000206000915090508060000154908060010160009054906101000a900473ffffffffffffffffffffffffffffffffffffffff16908060020180546103e990612738565b80601f016020809104026020016040519081016040528092919081815260200182805461041590612738565b80156104625780601f1061043757610100808354040283529160200191610462565b820191906000526020600020905b81548152906001019060200180831161044557829003601f168201915b50505050509080600301805461047790612738565b80601f01602080910402602001604051908101604052809291908181526020018280546104a390612738565b80156104f05780601f106104c5576101008083540402835291602001916104f0565b820191906000526020600020905b8154815290600101906020018083116104d357829003601f168201915b5050505050908060040154908060050154908060060154908060070160009054906101000a900460ff16908060070160019054906101000a900460ff16905089565b6000806000838152602001908152602001600020905060006002600084815260200190815260200160002060003373ffffffffffffffffffffffffffffffffffffffff1673ffffffffffffffffffffffffffffffffffffffff168152602001908152602001600020905060008260000154116105e3576040517f08c379a00000000000000000000000000000000000000000000000000000000081526004016105da906120fc565b60405180910390fd5b600081600001541161062a576040517f08c379a00000000000000000000000000000000000000000000000000000000081526004016106219061213c565b60405180910390fd5b8060020154421015610671576040517f08c379a0000000000000000000000000000000000000000000000000000000008152600401610668906122fc565b60405180910390fd5b8060040160009054906101000a900460ff16156106c3576040517f08c379a00000000000000000000000000000000000000000000000000000000081526004016106ba9061221c565b60405180910390fd5b60018160040160006101000a81548160ff0219169083151502179055506000816003015482600001546106f691906125bb565b90503373ffffffffffffffffffffffffffffffffffffffff166108fc829081150290604051600060405180830381858888f1935050505015801561073e573d6000803e3d6000fd5b503373ffffffffffffffffffffffffffffffffffffffff16847f2f37d273901a1c446beb22093f48c1cac5c95b77980487848ea95266f659653e846003015460405161078a919061237c565b60405180910390a350505050565b6000806000806000806002600089815260200190815260200160002060008873ffffffffffffffffffffffffffffffffffffffff1673ffffffffffffffffffffffffffffffffffffffff1681526020019081526020016000206040518060a0016040529081600082015481526020016001820154815260200160028201548152602001600382015481526020016004820160009054906101000a900460ff16151515158152505090508060000151816020015182604001518360600151846080015195509550955095509550509295509295909350565b6001602052816000526040600020602052806000526040600020600091509150505481565b6000806000838152602001908152602001600020905060008160000154116108f1576040517f08c379a00000000000000000000000000000000000000000000000000000000081526004016108e8906120fc565b60405180910390fd5b8060010160009054906101000a900473ffffffffffffffffffffffffffffffffffffffff1673ffffffffffffffffffffffffffffffffffffffff163373ffffffffffffffffffffffffffffffffffffffff1614610983576040517f08c379a000000000000000000000000000000000000000000000000000000000815260040161097a9061229c565b60405180910390fd5b806006015442106109c9576040517f08c379a00000000000000000000000000000000000000000000000000000000081526004016109c09061225c565b60405180910390fd5b8060070160009054906101000a900460ff1615610a1b576040517f08c379a0000000000000000000000000000000000000000000000000000000008152600401610a129061217c565b60405180910390fd5b8060070160019054906101000a900460ff1615610a6d576040517f08c379a0000000000000000000000000000000000000000000000000000000008152600401610a649061227c565b60405180910390fd5b60018160070160016101000a81548160ff021916908315150217905550817f1925581c2be6a6ef3cd786635d86c841eb4bbdb051dce32356a44c457d03499860405160405180910390a25050565b60045481565b6000806060806000806000806000806000808c815260200190815260200160002060405180610120016040529081600082015481526020016001820160009054906101000a900473ffffffffffffffffffffffffffffffffffffffff1673ffffffffffffffffffffffffffffffffffffffff1673ffffffffffffffffffffffffffffffffffffffff168152602001600282018054610b5e90612738565b80601f0160208091040260200160405190810160405280929190818152602001828054610b8a90612738565b8015610bd75780601f10610bac57610100808354040283529160200191610bd7565b820191906000526020600020905b815481529060010190602001808311610bba57829003601f168201915b50505050508152602001600382018054610bf090612738565b80601f0160208091040260200160405190810160405280929190818152602001828054610c1c90612738565b8015610c695780601f10610c3e57610100808354040283529160200191610c69565b820191906000526020600020905b815481529060010190602001808311610c4c57829003601f168201915b505050505081526020016004820154815260200160058201548152602001600682015481526020016007820160009054906101000a900460ff161515151581526020016007820160019054906101000a900460ff16151515158152505090506000816000015111610d0f576040517f08c379a0000000000000000000000000000000000000000000000000000000008152600401610d06906120fc565b60405180910390fd5b806000015181602001518260400151836060015184608001518560a001518660c001518760e00151886101000151995099509950995099509950995099509950509193959799909294969850565b60035481565b6000806000838152602001908152602001600020905060006001600084815260200190815260200160002060003373ffffffffffffffffffffffffffffffffffffffff1673ffffffffffffffffffffffffffffffffffffffff1681526020019081526020016000205490506000826000015411610e15576040517f08c379a0000000000000000000000000000000000000000000000000000000008152600401610e0c906120fc565b60405180910390fd5b60008111610e58576040517f08c379a0000000000000000000000000000000000000000000000000000000008152600401610e4f9061235c565b60405180910390fd5b8160070160019054906101000a900460ff1680610e8c575081600601544210158015610e8b575081600401548260050154105b5b610ecb576040517f08c379a0000000000000000000000000000000000000000000000000000000008152600401610ec29061215c565b60405180910390fd5b60006001600085815260200190815260200160002060003373ffffffffffffffffffffffffffffffffffffffff1673ffffffffffffffffffffffffffffffffffffffff168152602001908152602001600020819055503373ffffffffffffffffffffffffffffffffffffffff166108fc829081150290604051600060405180830381858888f19350505050158015610f67573d6000803e3d6000fd5b503373ffffffffffffffffffffffffffffffffffffffff16837ffc8dc45aafeb84bf841ffa6c1b48653bea5b43662ab6685b9683e2e5b72fc74f83604051610faf919061237c565b60405180910390a3505050565b600080600084815260200190815260200160002090506000816000015411611019576040517f08c379a0000000000000000000000000000000000000000000000000000000008152600401611010906120fc565b60405180910390fd5b8060060154421061105f576040517f08c379a00000000000000000000000000000000000000000000000000000000081526004016110569061211c565b60405180910390fd5b8060070160019054906101000a900460ff16156110b1576040517f08c379a00000000000000000000000000000000000000000000000000000000081526004016110a8906121dc565b60405180910390fd5b600034116110f4576040517f08c379a00000000000000000000000000000000000000000000000000000000081526004016110eb906122dc565b60405180910390fd5b601e821015611138576040517f08c379a000000000000000000000000000000000000000000000000000000000815260040161112f9061233c565b60405180910390fd5b61016d82111561117d576040517f08c379a00000000000000000000000000000000000000000000000000000000081526004016111749061219c565b60405180910390fd5b6000620151808361118e9190612642565b90506000814261119e91906125bb565b905060006111ac3484611af2565b9050348460050160008282546111c291906125bb565b925050819055506040518060a00160405280348152602001848152602001838152602001828152602001600015158152506002600088815260200190815260200160002060003373ffffffffffffffffffffffffffffffffffffffff1673ffffffffffffffffffffffffffffffffffffffff1681526020019081526020016000206000820151816000015560208201518160010155604082015181600201556060820151816003015560808201518160040160006101000a81548160ff0219169083151502179055509050503373ffffffffffffffffffffffffffffffffffffffff16867fdd4bc7d91576b5808e7efb282eb21b954f4f5b728f2c1aa656bc95bf3faed5b534866040516112d79291906124cd565b60405180910390a3505050505050565b600080831161132b576040517f08c379a00000000000000000000000000000000000000000000000000000000081526004016113229061231c565b60405180910390fd5b6000821161136e576040517f08c379a0000000000000000000000000000000000000000000000000000000008152600401611365906121fc565b60405180910390fd5b600360008154809291906113819061279b565b9190505550600062015180836113979190612642565b426113a291906125bb565b905060405180610120016040528060035481526020013373ffffffffffffffffffffffffffffffffffffffff168152602001878152602001868152602001858152602001600081526020018281526020016000151581526020016000151581525060008060035481526020019081526020016000206000820151816000015560208201518160010160006101000a81548173ffffffffffffffffffffffffffffffffffffffff021916908373ffffffffffffffffffffffffffffffffffffffff1602179055506040820151816002019080519060200190611484929190611b24565b5060608201518160030190805190602001906114a1929190611b24565b506080820151816004015560a0820151816005015560c0820151816006015560e08201518160070160006101000a81548160ff0219169083151502179055506101008201518160070160016101000a81548160ff0219169083151502179055509050503373ffffffffffffffffffffffffffffffffffffffff166003547fdc26653af5b99b2da33e2ad69ee6600d9aeccc82b034501db4338309615ca238888785604051611551939291906120be565b60405180910390a3600354915050949350505050565b6002602052816000526040600020602052806000526040600020600091509150508060000154908060010154908060020154908060030154908060040160009054906101000a900460ff16905085565b600080600083815260200190815260200160002090506000816000015411611614576040517f08c379a000000000000000000000000000000000000000000000000000000000815260040161160b906120fc565b60405180910390fd5b8060060154421061165a576040517f08c379a00000000000000000000000000000000000000000000000000000000081526004016116519061211c565b60405180910390fd5b8060070160019054906101000a900460ff16156116ac576040517f08c379a00000000000000000000000000000000000000000000000000000000081526004016116a3906121dc565b60405180910390fd5b600034116116ef576040517f08c379a00000000000000000000000000000000000000000000000000000000081526004016116e6906122dc565b60405180910390fd5b3481600501600082825461170391906125bb565b92505081905550346001600084815260200190815260200160002060003373ffffffffffffffffffffffffffffffffffffffff1673ffffffffffffffffffffffffffffffffffffffff168152602001908152602001600020600082825461176a91906125bb565b925050819055503373ffffffffffffffffffffffffffffffffffffffff16827f0a4a91237423e0a1766a761c7cb029311d8b95d6b1b81db1b949a70c98b4e08e346040516117b8919061237c565b60405180910390a35050565b600080600083815260200190815260200160002090506000816000015411611821576040517f08c379a0000000000000000000000000000000000000000000000000000000008152600401611818906120fc565b60405180910390fd5b8060010160009054906101000a900473ffffffffffffffffffffffffffffffffffffffff1673ffffffffffffffffffffffffffffffffffffffff163373ffffffffffffffffffffffffffffffffffffffff16146118b3576040517f08c379a00000000000000000000000000000000000000000000000000000000081526004016118aa906121bc565b60405180910390fd5b80600601544210156118fa576040517f08c379a00000000000000000000000000000000000000000000000000000000081526004016118f19061223c565b60405180910390fd5b806004015481600501541015611945576040517f08c379a000000000000000000000000000000000000000000000000000000000815260040161193c906122bc565b60405180910390fd5b8060070160009054906101000a900460ff1615611997576040517f08c379a000000000000000000000000000000000000000000000000000000000815260040161198e9061217c565b60405180910390fd5b8060070160019054906101000a900460ff16156119e9576040517f08c379a00000000000000000000000000000000000000000000000000000000081526004016119e0906121dc565b60405180910390fd5b60018160070160006101000a81548160ff0219169083151502179055506000816005015490508160010160009054906101000a900473ffffffffffffffffffffffffffffffffffffffff1673ffffffffffffffffffffffffffffffffffffffff166108fc829081150290604051600060405180830381858888f19350505050158015611a79573d6000803e3d6000fd5b508160010160009054906101000a900473ffffffffffffffffffffffffffffffffffffffff1673ffffffffffffffffffffffffffffffffffffffff16837f47e2ae35607c094f924cae99dd155cbc3dc694f2ff24efa6cfa567811860a1a483604051611ae5919061237c565b60405180910390a3505050565b600063bbf81e008260045485611b089190612642565b611b129190612642565b611b1c9190612611565b905092915050565b828054611b3090612738565b90600052602060002090601f016020900481019282611b525760008555611b99565b82601f10611b6b57805160ff1916838001178555611b99565b82800160010185558215611b99579182015b82811115611b98578251825591602001919060010190611b7d565b5b509050611ba69190611baa565b5090565b5b80821115611bc3576000816000905550600101611bab565b5090565b6000611bda611bd58461256e565b612549565b905082815260208101848484011115611bf257600080fd5b611bfd8482856126f6565b509392505050565b600081359050611c1481612c7d565b92915050565b600082601f830112611c2b57600080fd5b8135611c3b848260208601611bc7565b91505092915050565b600081359050611c5381612c94565b92915050565b60008060008060808587031215611c6f57600080fd5b600085013567ffffffffffffffff811115611c8957600080fd5b611c9587828801611c1a565b945050602085013567ffffffffffffffff811115611cb257600080fd5b611cbe87828801611c1a565b9350506040611ccf87828801611c44565b9250506060611ce087828801611c44565b91505092959194509250565b600060208284031215611cfe57600080fd5b6000611d0c84828501611c44565b91505092915050565b60008060408385031215611d2857600080fd5b6000611d3685828601611c44565b9250506020611d4785828601611c05565b9150509250929050565b60008060408385031215611d6457600080fd5b6000611d7285828601611c44565b9250506020611d8385828601611c44565b9150509250929050565b611d96816126ae565b82525050565b611da58161269c565b82525050565b611db4816126c0565b82525050565b6000611dc58261259f565b611dcf81856125aa565b9350611ddf818560208601612705565b611de8816128a0565b840191505092915050565b6000611e006017836125aa565b9150611e0b826128b1565b602082019050919050565b6000611e236012836125aa565b9150611e2e826128da565b602082019050919050565b6000611e46601d836125aa565b9150611e5182612903565b602082019050919050565b6000611e696019836125aa565b9150611e748261292c565b602082019050919050565b6000611e8c6015836125aa565b9150611e9782612955565b602082019050919050565b6000611eaf6025836125aa565b9150611eba8261297e565b604082019050919050565b6000611ed26023836125aa565b9150611edd826129cd565b604082019050919050565b6000611ef5601a836125aa565b9150611f0082612a1c565b602082019050919050565b6000611f18601f836125aa565b9150611f2382612a45565b602082019050919050565b6000611f3b6016836125aa565b9150611f4682612a6e565b602082019050919050565b6000611f5e601a836125aa565b9150611f6982612a97565b602082019050919050565b6000611f81601a836125aa565b9150611f8c82612ac0565b602082019050919050565b6000611fa46019836125aa565b9150611faf82612ae9565b602082019050919050565b6000611fc7601e836125aa565b9150611fd282612b12565b602082019050919050565b6000611fea6019836125aa565b9150611ff582612b3b565b602082019050919050565b600061200d6023836125aa565b915061201882612b64565b604082019050919050565b60006120306020836125aa565b915061203b82612bb3565b602082019050919050565b6000612053601b836125aa565b915061205e82612bdc565b602082019050919050565b60006120766027836125aa565b915061208182612c05565b604082019050919050565b60006120996015836125aa565b91506120a482612c54565b602082019050919050565b6120b8816126ec565b82525050565b600060608201905081810360008301526120d88186611dba565b90506120e760208301856120af565b6120f460408301846120af565b949350505050565b6000602082019050818103600083015261211581611df3565b9050919050565b6000602082019050818103600083015261213581611e16565b9050919050565b6000602082019050818103600083015261215581611e39565b9050919050565b6000602082019050818103600083015261217581611e5c565b9050919050565b6000602082019050818103600083015261219581611e7f565b9050919050565b600060208201905081810360008301526121b581611ea2565b9050919050565b600060208201905081810360008301526121d581611ec5565b9050919050565b600060208201905081810360008301526121f581611ee8565b9050919050565b6000602082019050818103600083015261221581611f0b565b9050919050565b6000602082019050818103600083015261223581611f2e565b9050919050565b6000602082019050818103600083015261225581611f51565b9050919050565b6000602082019050818103600083015261227581611f74565b9050919050565b6000602082019050818103600083015261229581611f97565b9050919050565b600060208201905081810360008301526122b581611fba565b9050919050565b600060208201905081810360008301526122d581611fdd565b9050919050565b600060208201905081810360008301526122f581612000565b9050919050565b6000602082019050818103600083015261231581612023565b9050919050565b6000602082019050818103600083015261233581612046565b9050919050565b6000602082019050818103600083015261235581612069565b9050919050565b600060208201905081810360008301526123758161208c565b9050919050565b600060208201905061239160008301846120af565b92915050565b6000610120820190506123ad600083018c6120af565b6123ba602083018b611d8d565b81810360408301526123cc818a611dba565b905081810360608301526123e08189611dba565b90506123ef60808301886120af565b6123fc60a08301876120af565b61240960c08301866120af565b61241660e0830185611dab565b612424610100830184611dab565b9a9950505050505050505050565b600061012082019050612448600083018c6120af565b612455602083018b611d9c565b8181036040830152612467818a611dba565b9050818103606083015261247b8189611dba565b905061248a60808301886120af565b61249760a08301876120af565b6124a460c08301866120af565b6124b160e0830185611dab565b6124bf610100830184611dab565b9a9950505050505050505050565b60006040820190506124e260008301856120af565b6124ef60208301846120af565b9392505050565b600060a08201905061250b60008301886120af565b61251860208301876120af565b61252560408301866120af565b61253260608301856120af565b61253f6080830184611dab565b9695505050505050565b6000612553612564565b905061255f828261276a565b919050565b6000604051905090565b600067ffffffffffffffff82111561258957612588612871565b5b612592826128a0565b9050602081019050919050565b600081519050919050565b600082825260208201905092915050565b60006125c6826126ec565b91506125d1836126ec565b9250827fffffffffffffffffffffffffffffffffffffffffffffffffffffffffffffffff03821115612606576126056127e4565b5b828201905092915050565b600061261c826126ec565b9150612627836126ec565b92508261263757612636612813565b5b828204905092915050565b600061264d826126ec565b9150612658836126ec565b9250817fffffffffffffffffffffffffffffffffffffffffffffffffffffffffffffffff0483118215151615612691576126906127e4565b5b828202905092915050565b60006126a7826126cc565b9050919050565b60006126b9826126cc565b9050919050565b60008115159050919050565b600073ffffffffffffffffffffffffffffffffffffffff82169050919050565b6000819050919050565b82818337600083830152505050565b60005b83811015612723578082015181840152602081019050612708565b83811115612732576000848401525b50505050565b6000600282049050600182168061275057607f821691505b6020821081141561276457612763612842565b5b50919050565b612773826128a0565b810181811067ffffffffffffffff8211171561279257612791612871565b5b80604052505050565b60006127a6826126ec565b91507fffffffffffffffffffffffffffffffffffffffffffffffffffffffffffffffff8214156127d9576127d86127e4565b5b600182019050919050565b7f4e487b7100000000000000000000000000000000000000000000000000000000600052601160045260246000fd5b7f4e487b7100000000000000000000000000000000000000000000000000000000600052601260045260246000fd5b7f4e487b7100000000000000000000000000000000000000000000000000000000600052602260045260246000fd5b7f4e487b7100000000000000000000000000000000000000000000000000000000600052604160045260246000fd5b6000601f19601f8301169050919050565b7f43616d706169676e20646f6573206e6f74206578697374000000000000000000600082015250565b7f43616d706169676e2068617320656e6465640000000000000000000000000000600082015250565b7f4e6f207374616b696e6720636f6e747269627574696f6e20666f756e64000000600082015250565b7f526566756e6420636f6e646974696f6e73206e6f74206d657400000000000000600082015250565b7f46756e647320616c726561647920636c61696d65640000000000000000000000600082015250565b7f5374616b696e6720706572696f642063616e6e6f74206578636565642033363560008201527f2064617973000000000000000000000000000000000000000000000000000000602082015250565b7f4f6e6c792063616d706169676e206f776e65722063616e20636c61696d20667560008201527f6e64730000000000000000000000000000000000000000000000000000000000602082015250565b7f43616d706169676e20686173206265656e2063616e63656c6564000000000000600082015250565b7f4475726174696f6e206d7573742062652067726561746572207468616e203000600082015250565b7f52657761726420616c726561647920636c61696d656400000000000000000000600082015250565b7f43616d706169676e20686173206e6f7420656e64656420796574000000000000600082015250565b7f43616d706169676e2068617320616c726561647920656e646564000000000000600082015250565b7f43616d706169676e20616c72656164792063616e63656c656400000000000000600082015250565b7f4f6e6c792063616d706169676e206f776e65722063616e2063616e63656c0000600082015250565b7f43616d706169676e20676f616c206e6f74207265616368656400000000000000600082015250565b7f436f6e747269627574696f6e206d75737420626520677265617465722074686160008201527f6e20300000000000000000000000000000000000000000000000000000000000602082015250565b7f5374616b696e6720706572696f6420686173206e6f7420656e64656420796574600082015250565b7f476f616c206d7573742062652067726561746572207468616e20300000000000600082015250565b7f5374616b696e6720706572696f64206d757374206265206174206c656173742060008201527f3330206461797300000000000000000000000000000000000000000000000000602082015250565b7f4e6f20636f6e747269627574696f6e20666f756e640000000000000000000000600082015250565b612c868161269c565b8114612c9157600080fd5b50565b612c9d816126ec565b8114612ca857600080fd5b5056fea2646970667358221220fa7e31310236cc8152d255817b9e29bc341540136f87f7a30d31767f3321c72964736f6c63430008040033",
  "linkReferences": {},
  "deployedLinkReferences": {}
}